:100000000C9434000C943E000C943E000C943E0082
:100010000C943E000C943E000C943E000C943E0068
:100020000C943E000C943E000C943E000C943E0058
:100030000C943E000C943E000C943E000C943E0048
:100040000C943E000C943E000C943E000C943E0038
:100050000C943E000C943E000C943E000C943E0028
:100060000C943E000C943E0011241FBECFEFD8E04C
:10007000DEBFCDBF0E9440000C9471000C940000C4
:10008000209A229A95B181E0892785B92198299AE9
:1000900020E030E080E090E040E050E061E074E09B
:1000A000199915C00196893C9105D4F34115510564
:1000B00019F080E090E0F4CF85B1862785B985B14D
:1000C000872785B980E090E041E050E0E9CF2F5FDD
:1000D0003F4F293C310524F320E030E040E050E080
:0600E000DFCFF894FFCF12
:00000001FF
