:100000000C9434000C943E000C943E000C943E0082
:100010000C943E000C943E000C943E000C943E0068
:100020000C943E000C943E000C943E000C943E0058
:100030000C943E000C943E000C943E000C943E0048
:100040000C943E000C943E000C943E000C943E0038
:100050000C943E000C943E000C943E000C943E0028
:100060000C943E000C943E0011241FBECFEFD8E04C
:10007000DEBFCDBF0E9440000C9473000C940000C2
:10008000209A229A95B181E0892785B92198299AE9
:1000900020E030E080E090E040E050E061E074E09B
:1000A000199916C00196853FE1E09E07CCF34115F2
:1000B000510519F080E090E0F3CF85B1862785B92E
:1000C00085B1872785B980E090E041E050E0E8CF36
:1000D0002F5F3F4F253FE1E03E0714F320E030E083
:0A00E00040E050E0DDCFF894FFCFC0
:00000001FF
