:100000000C9434000C943E000C943E000C943E0082
:100010000C943E000C943E000C943E000C943E0068
:100020000C943E000C943E000C943E000C943E0058
:100030000C943E000C943E000C943E000C943E0048
:100040000C943E000C943E000C943E000C943E0038
:100050000C943E000C943E000C943E000C943E0028
:100060000C943E000C943E0011241FBECFEFD8E04C
:10007000DEBFCDBF0E9440000C945D000C940000D8
:10008000209A229A95B181E0892785B92198299AE9
:1000900020E030E051E044E0C901199B03C080E05A
:1000A00090E0FBCF21E030E0892BB1F785B18527C7
:0E00B00085B985B1842785B9EFCFF894FFCFCD
:00000001FF
