:100000000C9434000C943E000C943E000C943E0082
:100010000C943E000C943E000C943E000C943E0068
:100020000C943E000C943E000C943E000C943E0058
:100030000C943E000C943E000C943E000C943E0048
:100040000C943E000C943E000C943E000C943E0038
:100050000C943E000C943E000C943E000C943E0028
:100060000C943E000C943E0011241FBECFEFD8E04C
:10007000DEBFCDBF0E9440000C945B000C940000DA
:10008000209A2198299A91E085B1892785B91999F3
:1000900008C02FE33DE083E0215030408040E1F78D
:1000A00007C02FE734E88EE1215030408040E1F76F
:0A00B00000C00000E9CFF894FFCF74
:00000001FF
